{
  "contractName": "BlacklistContract",
  "abi": [
    {
      "constant": true,
      "inputs": [],
      "name": "L2_L3",
      "outputs": [
        {
          "name": "",
          "type": "uint256"
        }
      ],
      "payable": false,
      "stateMutability": "view",
      "type": "function"
    },
    {
      "constant": true,
      "inputs": [],
      "name": "managerContract",
      "outputs": [
        {
          "name": "",
          "type": "address"
        }
      ],
      "payable": false,
      "stateMutability": "view",
      "type": "function"
    },
    {
      "constant": true,
      "inputs": [],
      "name": "L0_L1",
      "outputs": [
        {
          "name": "",
          "type": "uint256"
        }
      ],
      "payable": false,
      "stateMutability": "view",
      "type": "function"
    },
    {
      "constant": true,
      "inputs": [],
      "name": "L1_L2",
      "outputs": [
        {
          "name": "",
          "type": "uint256"
        }
      ],
      "payable": false,
      "stateMutability": "view",
      "type": "function"
    },
    {
      "inputs": [
        {
          "name": "votesLimit",
          "type": "uint256"
        }
      ],
      "payable": false,
      "stateMutability": "nonpayable",
      "type": "constructor"
    },
    {
      "constant": false,
      "inputs": [
        {
          "name": "domain",
          "type": "string"
        }
      ],
      "name": "initializeNewResource",
      "outputs": [],
      "payable": false,
      "stateMutability": "nonpayable",
      "type": "function"
    },
    {
      "constant": false,
      "inputs": [
        {
          "name": "domain",
          "type": "string"
        },
        {
          "name": "user",
          "type": "address"
        }
      ],
      "name": "addVoteToResource",
      "outputs": [],
      "payable": false,
      "stateMutability": "nonpayable",
      "type": "function"
    },
    {
      "constant": true,
      "inputs": [
        {
          "name": "domain",
          "type": "string"
        },
        {
          "name": "user",
          "type": "address"
        }
      ],
      "name": "isAlreadyVoted",
      "outputs": [
        {
          "name": "",
          "type": "bool"
        }
      ],
      "payable": false,
      "stateMutability": "view",
      "type": "function"
    },
    {
      "constant": true,
      "inputs": [
        {
          "name": "domain",
          "type": "string"
        }
      ],
      "name": "getResourceLevel",
      "outputs": [
        {
          "name": "",
          "type": "bytes1"
        }
      ],
      "payable": false,
      "stateMutability": "view",
      "type": "function"
    }
  ],
  "bytecode": "0x608060405234801561001057600080fd5b50604051602080610c378339810180604052602081101561003057600080fd5b8101908080519060200190929190505050336000806101000a81548173ffffffffffffffffffffffffffffffffffffffff021916908373ffffffffffffffffffffffffffffffffffffffff160217905550806003819055506064605082028161009557fe5b046002819055506064600a8202816100a957fe5b0460018190555050610b77806100c06000396000f3fe608060405234801561001057600080fd5b50600436106100a5576000357c0100000000000000000000000000000000000000000000000000000000900480636b1488e6116100785780636b1488e6146102c0578063eb584574146103d3578063ed11c858146104ae578063f2019442146104cc576100a5565b806309689955146100aa57806309dad953146101655780632710ac80146101835780634418c4db146101cd575b600080fd5b610163600480360360208110156100c057600080fd5b81019080803590602001906401000000008111156100dd57600080fd5b8201836020820111156100ef57600080fd5b8035906020019184600183028401116401000000008311171561011157600080fd5b91908080601f016020809104026020016040519081016040528093929190818152602001838380828437600081840152601f19601f8201169050808301925050505050505091929192905050506104ea565b005b61016d61063a565b6040518082815260200191505060405180910390f35b61018b610640565b604051808273ffffffffffffffffffffffffffffffffffffffff1673ffffffffffffffffffffffffffffffffffffffff16815260200191505060405180910390f35b6102a6600480360360408110156101e357600080fd5b810190808035906020019064010000000081111561020057600080fd5b82018360208201111561021257600080fd5b8035906020019184600183028401116401000000008311171561023457600080fd5b91908080601f016020809104026020016040519081016040528093929190818152602001838380828437600081840152601f19601f820116905080830192505050505050509192919290803573ffffffffffffffffffffffffffffffffffffffff169060200190929190505050610665565b604051808215151515815260200191505060405180910390f35b610379600480360360208110156102d657600080fd5b81019080803590602001906401000000008111156102f357600080fd5b82018360208201111561030557600080fd5b8035906020019184600183028401116401000000008311171561032757600080fd5b91908080601f016020809104026020016040519081016040528093929190818152602001838380828437600081840152601f19601f8201169050808301925050505050505091929192905050506107d7565b60405180827effffffffffffffffffffffffffffffffffffffffffffffffffffffffffffff19167effffffffffffffffffffffffffffffffffffffffffffffffffffffffffffff1916815260200191505060405180910390f35b6104ac600480360360408110156103e957600080fd5b810190808035906020019064010000000081111561040657600080fd5b82018360208201111561041857600080fd5b8035906020019184600183028401116401000000008311171561043a57600080fd5b91908080601f016020809104026020016040519081016040528093929190818152602001838380828437600081840152601f19601f820116905080830192505050505050509192919290803573ffffffffffffffffffffffffffffffffffffffff16906020019092919050505061091b565b005b6104b6610b17565b6040518082815260200191505060405180910390f35b6104d4610b1d565b6040518082815260200191505060405180910390f35b6000809054906101000a900473ffffffffffffffffffffffffffffffffffffffff1673ffffffffffffffffffffffffffffffffffffffff163373ffffffffffffffffffffffffffffffffffffffff16146105ac576040517f08c379a00000000000000000000000000000000000000000000000000000000081526004018080602001828103825260158152602001807f556e617574686f72697a6564206d616e616765722e000000000000000000000081525060200191505060405180910390fd5b60006004826040518082805190602001908083835b602083106105e457805182526020820191506020810190506020830392506105c1565b6001836020036101000a0380198251168184511680821785525050505050509050019150509081526020016040518091039020905060018160010160006101000a81548160ff0219169083151502179055505050565b60035481565b6000809054906101000a900473ffffffffffffffffffffffffffffffffffffffff1681565b600060606004846040518082805190602001908083835b6020831061069f578051825260208201915060208101905060208303925061067c565b6001836020036101000a038019825116818451168082178552505050505050905001915050908152602001604051809103902060000180548060200260200160405190810160405280929190818152602001828054801561075557602002820191906000526020600020905b8160009054906101000a900473ffffffffffffffffffffffffffffffffffffffff1673ffffffffffffffffffffffffffffffffffffffff168152602001906001019080831161070b575b5050505050905060008090505b81518110156107ca578373ffffffffffffffffffffffffffffffffffffffff1682828151811061078e57fe5b602002602001015173ffffffffffffffffffffffffffffffffffffffff1614156107bd576001925050506107d1565b8080600101915050610762565b5060009150505b92915050565b6000806004836040518082805190602001908083835b6020831061081057805182526020820191506020810190506020830392506107ed565b6001836020036101000a03801982511681845116808217855250505050505090500191505090815260200160405180910390206000018054905090506001548110156108825760007f010000000000000000000000000000000000000000000000000000000000000002915050610916565b6002548110156108b85760017f010000000000000000000000000000000000000000000000000000000000000002915050610916565b6003548110156108ee5760027f010000000000000000000000000000000000000000000000000000000000000002915050610916565b60037f0100000000000000000000000000000000000000000000000000000000000000029150505b919050565b6000809054906101000a900473ffffffffffffffffffffffffffffffffffffffff1673ffffffffffffffffffffffffffffffffffffffff163373ffffffffffffffffffffffffffffffffffffffff16146109dd576040517f08c379a00000000000000000000000000000000000000000000000000000000081526004018080602001828103825260158152602001807f556e617574686f72697a6564206d616e616765722e000000000000000000000081525060200191505060405180910390fd5b6109e78282610665565b15610a3d576040517f08c379a0000000000000000000000000000000000000000000000000000000008152600401808060200182810382526028815260200180610b246028913960400191505060405180910390fd5b60006004836040518082805190602001908083835b60208310610a755780518252602082019150602081019050602083039250610a52565b6001836020036101000a03801982511681845116808217855250505050505090500191505090815260200160405180910390209050806000018290806001815401808255809150509060018203906000526020600020016000909192909190916101000a81548173ffffffffffffffffffffffffffffffffffffffff021916908373ffffffffffffffffffffffffffffffffffffffff16021790555050505050565b60015481565b6002548156fe54686520757365722068617320616c726561647920766f74656420746865207265736f757263652ea165627a7a7230582021a986422c4418db4d4c73ed9e67cb8629b6b8101d44fe5d07f555bc8fb544580029",
  "source": "pragma solidity ^0.5.8;\n\ncontract BlacklistContract {\n\n    // DAppManager address\n    address public managerContract;\n\n    // List identifiers\n    byte private constant L0 = 0x00;\n    byte private constant L1 = 0x01;\n    byte private constant L2 = 0x02;\n    byte private constant L3 = 0x03;\n\n    // Limits between lists\n    uint public L0_L1;\n    uint public L1_L2;\n    uint public L2_L3;\n\n    // Resource votes data structure\n    struct Voting {\n\n        address[] voters;\n        bool isVotedHere;\n    }\n\n    // Data storage mapping\n    mapping(string => Voting) private votings;\n\n    // Constructor\n    constructor(uint votesLimit) public {\n\n        managerContract = msg.sender;\n        L2_L3 = votesLimit;                 // 100%\n        L1_L2 = votesLimit * 80 / 100;      // 80%\n        L0_L1 = votesLimit * 10 / 100;      // 10%\n    }\n\n    // Modifiers\n    modifier isManager() {\n\n        require(msg.sender == managerContract, 'Unauthorized manager.');\n        _;\n    }\n\n    // Functions\n    function initializeNewResource(string memory domain) public isManager {\n\n        Voting storage voting = votings[domain];\n        voting.isVotedHere = true;\n    }\n\n    function addVoteToResource(string memory domain, address user) public isManager {\n\n        require(!isAlreadyVoted(domain, user), 'The user has already voted the resource.');\n\n        Voting storage voting = votings[domain];\n        voting.voters.push(user);\n    }\n\n    function isAlreadyVoted(string memory domain, address user) public view returns (bool) {\n\n        address[] memory voters = votings[domain].voters;\n\n        for (uint i = 0; i < voters.length; i++) {\n\n            if (voters[i] == user) return true;\n        }\n\n        return false;\n    }\n\n    function getResourceLevel(string memory domain) public view returns (byte) {\n\n        uint totalVotes = votings[domain].voters.length;\n\n        if (totalVotes < L0_L1) return L0;\n        else if (totalVotes < L1_L2) return L1;\n        else if (totalVotes < L2_L3) return L2;\n        else return L3;\n    }\n}\n",
  "sourcePath": "/Users/swarley/Documents/Sentinel/dapp/contracts/BlacklistContract.sol",
  "compiler": {
    "name": "solc",
    "version": "0.5.8+commit.23d335f2.Emscripten.clang"
  },
  "schemaVersion": "3.0.6",
  "updatedAt": "2019-05-27T11:41:14.459Z",
  "devdoc": {
    "methods": {}
  },
  "userdoc": {
    "methods": {}
  }
}