{
  "contractName": "DAppManager",
  "abi": [
    {
      "constant": true,
      "inputs": [
        {
          "name": "",
          "type": "uint256"
        }
      ],
      "name": "blacklistsDeployed",
      "outputs": [
        {
          "name": "",
          "type": "bytes2"
        }
      ],
      "payable": false,
      "stateMutability": "view",
      "type": "function",
      "signature": "0x086d0b8f"
    },
    {
      "constant": true,
      "inputs": [
        {
          "name": "",
          "type": "bytes2"
        }
      ],
      "name": "blacklists",
      "outputs": [
        {
          "name": "",
          "type": "address"
        }
      ],
      "payable": false,
      "stateMutability": "view",
      "type": "function",
      "signature": "0x7e424f55"
    },
    {
      "constant": true,
      "inputs": [],
      "name": "owner",
      "outputs": [
        {
          "name": "",
          "type": "address"
        }
      ],
      "payable": false,
      "stateMutability": "view",
      "type": "function",
      "signature": "0x8da5cb5b"
    },
    {
      "constant": true,
      "inputs": [
        {
          "name": "",
          "type": "address"
        }
      ],
      "name": "users",
      "outputs": [
        {
          "name": "",
          "type": "address"
        }
      ],
      "payable": false,
      "stateMutability": "view",
      "type": "function",
      "signature": "0xa87430ba"
    },
    {
      "inputs": [],
      "payable": false,
      "stateMutability": "nonpayable",
      "type": "constructor",
      "signature": "constructor"
    },
    {
      "anonymous": false,
      "inputs": [],
      "name": "onDeployedBlacklist",
      "type": "event",
      "signature": "0xc88c3c388857d322fe9a28c50cd958c1d62ce15df2239ef222bf8927bac99190"
    },
    {
      "anonymous": false,
      "inputs": [
        {
          "indexed": false,
          "name": "publisher",
          "type": "address"
        }
      ],
      "name": "onPublishedResource",
      "type": "event",
      "signature": "0x1b70865c4eb7be2884b65102a680f5bb580498063f2b6da41906164b620d27a6"
    },
    {
      "constant": false,
      "inputs": [
        {
          "name": "domain",
          "type": "string"
        },
        {
          "name": "ipnsHash",
          "type": "string"
        },
        {
          "name": "country",
          "type": "bytes2"
        }
      ],
      "name": "publishNewResource",
      "outputs": [],
      "payable": false,
      "stateMutability": "nonpayable",
      "type": "function",
      "signature": "0x81a0440c"
    },
    {
      "constant": false,
      "inputs": [
        {
          "name": "userCountry",
          "type": "bytes2"
        }
      ],
      "name": "registerUser",
      "outputs": [],
      "payable": false,
      "stateMutability": "nonpayable",
      "type": "function",
      "signature": "0x467bc49f"
    },
    {
      "constant": false,
      "inputs": [
        {
          "name": "country",
          "type": "bytes2"
        },
        {
          "name": "votesLimit",
          "type": "uint256"
        }
      ],
      "name": "deployNewBlacklist",
      "outputs": [],
      "payable": false,
      "stateMutability": "nonpayable",
      "type": "function",
      "signature": "0xe9014dce"
    },
    {
      "constant": false,
      "inputs": [
        {
          "name": "domain",
          "type": "string"
        }
      ],
      "name": "voteResource",
      "outputs": [],
      "payable": false,
      "stateMutability": "nonpayable",
      "type": "function",
      "signature": "0xe4fa04fa"
    },
    {
      "constant": false,
      "inputs": [
        {
          "name": "anotherUser",
          "type": "address"
        }
      ],
      "name": "manageUserFollowings",
      "outputs": [],
      "payable": false,
      "stateMutability": "nonpayable",
      "type": "function",
      "signature": "0xa7617a9e"
    },
    {
      "constant": true,
      "inputs": [
        {
          "name": "domain",
          "type": "string"
        }
      ],
      "name": "searchResource",
      "outputs": [
        {
          "name": "",
          "type": "string"
        },
        {
          "name": "",
          "type": "bytes2"
        },
        {
          "name": "",
          "type": "bytes1"
        }
      ],
      "payable": false,
      "stateMutability": "view",
      "type": "function",
      "signature": "0x4117f101"
    },
    {
      "constant": true,
      "inputs": [
        {
          "name": "domain",
          "type": "string"
        }
      ],
      "name": "isDomainChosen",
      "outputs": [
        {
          "name": "",
          "type": "bool"
        }
      ],
      "payable": false,
      "stateMutability": "view",
      "type": "function",
      "signature": "0x27601ca4"
    },
    {
      "constant": true,
      "inputs": [
        {
          "name": "user",
          "type": "address"
        }
      ],
      "name": "isUserRegistered",
      "outputs": [
        {
          "name": "",
          "type": "bool"
        }
      ],
      "payable": false,
      "stateMutability": "view",
      "type": "function",
      "signature": "0x163f7522"
    },
    {
      "constant": true,
      "inputs": [
        {
          "name": "country",
          "type": "bytes2"
        }
      ],
      "name": "isBlacklistDeployed",
      "outputs": [
        {
          "name": "",
          "type": "bool"
        }
      ],
      "payable": false,
      "stateMutability": "view",
      "type": "function",
      "signature": "0x4f3a3630"
    },
    {
      "constant": true,
      "inputs": [],
      "name": "getBlacklistsCount",
      "outputs": [
        {
          "name": "",
          "type": "uint256"
        }
      ],
      "payable": false,
      "stateMutability": "view",
      "type": "function",
      "signature": "0x2bfe39a1"
    }
  ],
  "bytecode": "0x608060405234801561001057600080fd5b50336000806101000a81548173ffffffffffffffffffffffffffffffffffffffff021916908373ffffffffffffffffffffffffffffffffffffffff1602179055506141f4806100606000396000f3fe608060405234801561001057600080fd5b5060043610610107576000357c0100000000000000000000000000000000000000000000000000000000900480637e424f55116100a9578063a7617a9e11610083578063a7617a9e146107b1578063a87430ba146107f5578063e4fa04fa14610879578063e9014dce1461093457610107565b80637e424f551461055b57806381a0440c146105ea5780638da5cb5b1461076757610107565b80632bfe39a1116100e55780632bfe39a1146102bf5780634117f101146102dd578063467bc49f146104a55780634f3a3630146104f457610107565b8063086d0b8f1461010c578063163f75221461019057806327601ca4146101ec575b600080fd5b6101386004803603602081101561012257600080fd5b810190808035906020019092919050505061098d565b60405180827dffffffffffffffffffffffffffffffffffffffffffffffffffffffffffff19167dffffffffffffffffffffffffffffffffffffffffffffffffffffffffffff1916815260200191505060405180910390f35b6101d2600480360360208110156101a657600080fd5b81019080803573ffffffffffffffffffffffffffffffffffffffff1690602001909291905050506109df565b604051808215151515815260200191505060405180910390f35b6102a56004803603602081101561020257600080fd5b810190808035906020019064010000000081111561021f57600080fd5b82018360208201111561023157600080fd5b8035906020019184600183028401116401000000008311171561025357600080fd5b91908080601f016020809104026020016040519081016040528093929190818152602001838380828437600081840152601f19601f820116905080830192505050505050509192919290505050610a8d565b604051808215151515815260200191505060405180910390f35b6102c7610c4e565b6040518082815260200191505060405180910390f35b610396600480360360208110156102f357600080fd5b810190808035906020019064010000000081111561031057600080fd5b82018360208201111561032257600080fd5b8035906020019184600183028401116401000000008311171561034457600080fd5b91908080601f016020809104026020016040519081016040528093929190818152602001838380828437600081840152601f19601f820116905080830192505050505050509192919290505050610c5b565b6040518080602001847dffffffffffffffffffffffffffffffffffffffffffffffffffffffffffff19167dffffffffffffffffffffffffffffffffffffffffffffffffffffffffffff19168152602001837effffffffffffffffffffffffffffffffffffffffffffffffffffffffffffff19167effffffffffffffffffffffffffffffffffffffffffffffffffffffffffffff19168152602001828103825285818151815260200191508051906020019080838360005b8381101561046857808201518184015260208101905061044d565b50505050905090810190601f1680156104955780820380516001836020036101000a031916815260200191505b5094505050505060405180910390f35b6104f2600480360360208110156104bb57600080fd5b8101908080357dffffffffffffffffffffffffffffffffffffffffffffffffffffffffffff191690602001909291905050506110ac565b005b6105416004803603602081101561050a57600080fd5b8101908080357dffffffffffffffffffffffffffffffffffffffffffffffffffffffffffff191690602001909291905050506112b0565b604051808215151515815260200191505060405180910390f35b6105a86004803603602081101561057157600080fd5b8101908080357dffffffffffffffffffffffffffffffffffffffffffffffffffffffffffff19169060200190929190505050611374565b604051808273ffffffffffffffffffffffffffffffffffffffff1673ffffffffffffffffffffffffffffffffffffffff16815260200191505060405180910390f35b6107656004803603606081101561060057600080fd5b810190808035906020019064010000000081111561061d57600080fd5b82018360208201111561062f57600080fd5b8035906020019184600183028401116401000000008311171561065157600080fd5b91908080601f016020809104026020016040519081016040528093929190818152602001838380828437600081840152601f19601f820116905080830192505050505050509192919290803590602001906401000000008111156106b457600080fd5b8201836020820111156106c657600080fd5b803590602001918460018302840111640100000000831117156106e857600080fd5b91908080601f016020809104026020016040519081016040528093929190818152602001838380828437600081840152601f19601f82011690508083019250505050505050919291929080357dffffffffffffffffffffffffffffffffffffffffffffffffffffffffffff191690602001909291905050506113a7565b005b61076f611a33565b604051808273ffffffffffffffffffffffffffffffffffffffff1673ffffffffffffffffffffffffffffffffffffffff16815260200191505060405180910390f35b6107f3600480360360208110156107c757600080fd5b81019080803573ffffffffffffffffffffffffffffffffffffffff169060200190929190505050611a58565b005b6108376004803603602081101561080b57600080fd5b81019080803573ffffffffffffffffffffffffffffffffffffffff169060200190929190505050611e46565b604051808273ffffffffffffffffffffffffffffffffffffffff1673ffffffffffffffffffffffffffffffffffffffff16815260200191505060405180910390f35b6109326004803603602081101561088f57600080fd5b81019080803590602001906401000000008111156108ac57600080fd5b8201836020820111156108be57600080fd5b803590602001918460018302840111640100000000831117156108e057600080fd5b91908080601f016020809104026020016040519081016040528093929190818152602001838380828437600081840152601f19601f820116905080830192505050505050509192919290505050611e79565b005b61098b6004803603604081101561094a57600080fd5b8101908080357dffffffffffffffffffffffffffffffffffffffffffffffffffffffffffff1916906020019092919080359060200190929190505050612463565b005b6004818154811061099a57fe5b9060005260206000209060109182820401919006600202915054906101000a90047e010000000000000000000000000000000000000000000000000000000000000281565b600080600260008473ffffffffffffffffffffffffffffffffffffffff1673ffffffffffffffffffffffffffffffffffffffff16815260200190815260200160002060009054906101000a900473ffffffffffffffffffffffffffffffffffffffff169050600073ffffffffffffffffffffffffffffffffffffffff168173ffffffffffffffffffffffffffffffffffffffff1614610a82576001915050610a88565b60009150505b919050565b6000610a97612624565b6001836040518082805190602001908083835b60208310610acd5780518252602082019150602081019050602083039250610aaa565b6001836020036101000a0380198251168184511680821785525050505050509050019150509081526020016040518091039020604051806060016040529081600082018054600181600116156101000203166002900480601f016020809104026020016040519081016040528092919081815260200182805460018160011615610100020316600290048015610ba45780601f10610b7957610100808354040283529160200191610ba4565b820191906000526020600020905b815481529060010190602001808311610b8757829003601f168201915b505050505081526020016001820160009054906101000a90047e01000000000000000000000000000000000000000000000000000000000000027dffffffffffffffffffffffffffffffffffffffffffffffffffffffffffff19167dffffffffffffffffffffffffffffffffffffffffffffffffffffffffffff191681526020016001820160029054906101000a900460ff16151515158152505090508060400151915050919050565b6000600480549050905090565b6060600080600060037f0100000000000000000000000000000000000000000000000000000000000000029050610c90612624565b6001866040518082805190602001908083835b60208310610cc65780518252602082019150602081019050602083039250610ca3565b6001836020036101000a0380198251168184511680821785525050505050509050019150509081526020016040518091039020604051806060016040529081600082018054600181600116156101000203166002900480601f016020809104026020016040519081016040528092919081815260200182805460018160011615610100020316600290048015610d9d5780601f10610d7257610100808354040283529160200191610d9d565b820191906000526020600020905b815481529060010190602001808311610d8057829003601f168201915b505050505081526020016001820160009054906101000a90047e01000000000000000000000000000000000000000000000000000000000000027dffffffffffffffffffffffffffffffffffffffffffffffffffffffffffff19167dffffffffffffffffffffffffffffffffffffffffffffffffffffffffffff191681526020016001820160029054906101000a900460ff161515151581525050905080604001511561103e5760006003600083602001517dffffffffffffffffffffffffffffffffffffffffffffffffffffffffffff19167dffffffffffffffffffffffffffffffffffffffffffffffffffffffffffff1916815260200190815260200160002060009054906101000a900473ffffffffffffffffffffffffffffffffffffffff16905060008173ffffffffffffffffffffffffffffffffffffffff16636b1488e6896040518263ffffffff167c01000000000000000000000000000000000000000000000000000000000281526004018080602001828103825283818151815260200191508051906020019080838360005b83811015610f4c578082015181840152602081019050610f31565b50505050905090810190601f168015610f795780820380516001836020036101000a031916815260200191505b509250505060206040518083038186803b158015610f9657600080fd5b505afa158015610faa573d6000803e3d6000fd5b505050506040513d6020811015610fc057600080fd5b81019080805190602001909291905050509050837effffffffffffffffffffffffffffffffffffffffffffffffffffffffffffff1916817effffffffffffffffffffffffffffffffffffffffffffffffffffffffffffff19161461103b578260000151836020015182829250965096509650505050506110a5565b50505b600080604051806020016040528060008152509190817e01000000000000000000000000000000000000000000000000000000000000029150807f010000000000000000000000000000000000000000000000000000000000000002905094509450945050505b9193909250565b6110b5336109df565b15611128576040517f08c379a000000000000000000000000000000000000000000000000000000000815260040180806020018281038252601f8152602001807f546865207573657220697320616c726561647920726567697374657265642e0081525060200191505060405180910390fd5b611131816112b0565b611186576040517f08c379a000000000000000000000000000000000000000000000000000000000815260040180806020018281038252602f815260200180614171602f913960400191505060405180910390fd5b338160405161119490612668565b808373ffffffffffffffffffffffffffffffffffffffff1673ffffffffffffffffffffffffffffffffffffffff168152602001827dffffffffffffffffffffffffffffffffffffffffffffffffffffffffffff19167dffffffffffffffffffffffffffffffffffffffffffffffffffffffffffff1916815260200192505050604051809103906000f08015801561122f573d6000803e3d6000fd5b50600260003373ffffffffffffffffffffffffffffffffffffffff1673ffffffffffffffffffffffffffffffffffffffff16815260200190815260200160002060006101000a81548173ffffffffffffffffffffffffffffffffffffffff021916908373ffffffffffffffffffffffffffffffffffffffff16021790555050565b60008060036000847dffffffffffffffffffffffffffffffffffffffffffffffffffffffffffff19167dffffffffffffffffffffffffffffffffffffffffffffffffffffffffffff1916815260200190815260200160002060009054906101000a900473ffffffffffffffffffffffffffffffffffffffff169050600073ffffffffffffffffffffffffffffffffffffffff168173ffffffffffffffffffffffffffffffffffffffff161461136957600191505061136f565b60009150505b919050565b60036020528060005260406000206000915054906101000a900473ffffffffffffffffffffffffffffffffffffffff1681565b6113b0336109df565b611422576040517f08c379a000000000000000000000000000000000000000000000000000000000815260040180806020018281038252601b8152602001807f5468652075736572206973206e6f7420726567697374657265642e000000000081525060200191505060405180910390fd5b61142b83610a8d565b1561149e576040517f08c379a000000000000000000000000000000000000000000000000000000000815260040180806020018281038252601c8152602001807f54686520646f6d61696e20697320616c72656164792074616b656e2e0000000081525060200191505060405180910390fd5b6114a7816112b0565b6114fc576040517f08c379a000000000000000000000000000000000000000000000000000000000815260040180806020018281038252602281526020018061414f6022913960400191505060405180910390fd5b6000600260003373ffffffffffffffffffffffffffffffffffffffff1673ffffffffffffffffffffffffffffffffffffffff16815260200190815260200160002060009054906101000a900473ffffffffffffffffffffffffffffffffffffffff1690508073ffffffffffffffffffffffffffffffffffffffff1663d8b0b4996040518163ffffffff167c010000000000000000000000000000000000000000000000000000000002815260040160206040518083038186803b1580156115c257600080fd5b505afa1580156115d6573d6000803e3d6000fd5b505050506040513d60208110156115ec57600080fd5b81019080805190602001909291905050507dffffffffffffffffffffffffffffffffffffffffffffffffffffffffffff1916827dffffffffffffffffffffffffffffffffffffffffffffffffffffffffffff191614611696576040517f08c379a00000000000000000000000000000000000000000000000000000000081526004018080602001828103825260268152602001806140f76026913960400191505060405180910390fd5b60006001856040518082805190602001908083835b602083106116ce57805182526020820191506020810190506020830392506116ab565b6001836020036101000a038019825116818451168082178552505050505050905001915050908152602001604051809103902090508381600001908051906020019061171b929190612675565b50828160010160006101000a81548161ffff02191690837e010000000000000000000000000000000000000000000000000000000000009004021790555060018160010160026101000a81548160ff0219169083151502179055508173ffffffffffffffffffffffffffffffffffffffff16630aeecf2b866040518263ffffffff167c01000000000000000000000000000000000000000000000000000000000281526004018080602001828103825283818151815260200191508051906020019080838360005b838110156117fe5780820151818401526020810190506117e3565b50505050905090810190601f16801561182b5780820380516001836020036101000a031916815260200191505b5092505050600060405180830381600087803b15801561184a57600080fd5b505af115801561185e573d6000803e3d6000fd5b50505050600060036000857dffffffffffffffffffffffffffffffffffffffffffffffffffffffffffff19167dffffffffffffffffffffffffffffffffffffffffffffffffffffffffffff1916815260200190815260200160002060009054906101000a900473ffffffffffffffffffffffffffffffffffffffff1690508073ffffffffffffffffffffffffffffffffffffffff166309689955876040518263ffffffff167c01000000000000000000000000000000000000000000000000000000000281526004018080602001828103825283818151815260200191508051906020019080838360005b83811015611964578082015181840152602081019050611949565b50505050905090810190601f1680156119915780820380516001836020036101000a031916815260200191505b5092505050600060405180830381600087803b1580156119b057600080fd5b505af11580156119c4573d6000803e3d6000fd5b505050507f1b70865c4eb7be2884b65102a680f5bb580498063f2b6da41906164b620d27a633604051808273ffffffffffffffffffffffffffffffffffffffff1673ffffffffffffffffffffffffffffffffffffffff16815260200191505060405180910390a1505050505050565b6000809054906101000a900473ffffffffffffffffffffffffffffffffffffffff1681565b8073ffffffffffffffffffffffffffffffffffffffff163373ffffffffffffffffffffffffffffffffffffffff161415611add576040517f08c379a00000000000000000000000000000000000000000000000000000000081526004018080602001828103825260298152602001806141a06029913960400191505060405180910390fd5b611ae6336109df565b611b3b576040517f08c379a000000000000000000000000000000000000000000000000000000000815260040180806020018281038252602281526020018061408f6022913960400191505060405180910390fd5b611b44816109df565b611b99576040517f08c379a00000000000000000000000000000000000000000000000000000000081526004018080602001828103825260238152602001806140b16023913960400191505060405180910390fd5b6000600260003373ffffffffffffffffffffffffffffffffffffffff1673ffffffffffffffffffffffffffffffffffffffff16815260200190815260200160002060009054906101000a900473ffffffffffffffffffffffffffffffffffffffff1690508073ffffffffffffffffffffffffffffffffffffffff1663a6d652a8836040518263ffffffff167c0100000000000000000000000000000000000000000000000000000000028152600401808273ffffffffffffffffffffffffffffffffffffffff1673ffffffffffffffffffffffffffffffffffffffff16815260200191505060206040518083038186803b158015611c9657600080fd5b505afa158015611caa573d6000803e3d6000fd5b505050506040513d6020811015611cc057600080fd5b810190808051906020019092919050505015611d8e578073ffffffffffffffffffffffffffffffffffffffff1663f107cfcb836040518263ffffffff167c0100000000000000000000000000000000000000000000000000000000028152600401808273ffffffffffffffffffffffffffffffffffffffff1673ffffffffffffffffffffffffffffffffffffffff168152602001915050600060405180830381600087803b158015611d7157600080fd5b505af1158015611d85573d6000803e3d6000fd5b50505050611e42565b8073ffffffffffffffffffffffffffffffffffffffff1663a70806f7836040518263ffffffff167c0100000000000000000000000000000000000000000000000000000000028152600401808273ffffffffffffffffffffffffffffffffffffffff1673ffffffffffffffffffffffffffffffffffffffff168152602001915050600060405180830381600087803b158015611e2957600080fd5b505af1158015611e3d573d6000803e3d6000fd5b505050505b5050565b60026020528060005260406000206000915054906101000a900473ffffffffffffffffffffffffffffffffffffffff1681565b611e82336109df565b611ef4576040517f08c379a000000000000000000000000000000000000000000000000000000000815260040180806020018281038252601b8152602001807f5468652075736572206973206e6f7420726567697374657265642e000000000081525060200191505060405180910390fd5b611efd81610a8d565b611f6f576040517f08c379a000000000000000000000000000000000000000000000000000000000815260040180806020018281038252601e8152602001807f546865207265736f75726365206973206e6f74207075626c69736865642e000081525060200191505060405180910390fd5b611f77612624565b6001826040518082805190602001908083835b60208310611fad5780518252602082019150602081019050602083039250611f8a565b6001836020036101000a0380198251168184511680821785525050505050509050019150509081526020016040518091039020604051806060016040529081600082018054600181600116156101000203166002900480601f0160208091040260200160405190810160405280929190818152602001828054600181600116156101000203166002900480156120845780601f1061205957610100808354040283529160200191612084565b820191906000526020600020905b81548152906001019060200180831161206757829003601f168201915b505050505081526020016001820160009054906101000a90047e01000000000000000000000000000000000000000000000000000000000000027dffffffffffffffffffffffffffffffffffffffffffffffffffffffffffff19167dffffffffffffffffffffffffffffffffffffffffffffffffffffffffffff191681526020016001820160029054906101000a900460ff16151515158152505090506000600260003373ffffffffffffffffffffffffffffffffffffffff1673ffffffffffffffffffffffffffffffffffffffff16815260200190815260200160002060009054906101000a900473ffffffffffffffffffffffffffffffffffffffff1690508073ffffffffffffffffffffffffffffffffffffffff1663d8b0b4996040518163ffffffff167c010000000000000000000000000000000000000000000000000000000002815260040160206040518083038186803b1580156121e757600080fd5b505afa1580156121fb573d6000803e3d6000fd5b505050506040513d602081101561221157600080fd5b81019080805190602001909291905050507dffffffffffffffffffffffffffffffffffffffffffffffffffffffffffff191682602001517dffffffffffffffffffffffffffffffffffffffffffffffffffffffffffff1916146122bf576040517f08c379a00000000000000000000000000000000000000000000000000000000081526004018080602001828103825260238152602001806140d46023913960400191505060405180910390fd5b60006003600084602001517dffffffffffffffffffffffffffffffffffffffffffffffffffffffffffff19167dffffffffffffffffffffffffffffffffffffffffffffffffffffffffffff1916815260200190815260200160002060009054906101000a900473ffffffffffffffffffffffffffffffffffffffff1690508073ffffffffffffffffffffffffffffffffffffffff1663eb58457485336040518363ffffffff167c010000000000000000000000000000000000000000000000000000000002815260040180806020018373ffffffffffffffffffffffffffffffffffffffff1673ffffffffffffffffffffffffffffffffffffffff168152602001828103825284818151815260200191508051906020019080838360005b838110156123f85780820151818401526020810190506123dd565b50505050905090810190601f1680156124255780820380516001836020036101000a031916815260200191505b509350505050600060405180830381600087803b15801561244557600080fd5b505af1158015612459573d6000803e3d6000fd5b5050505050505050565b61246c826112b0565b156124c2576040517f08c379a000000000000000000000000000000000000000000000000000000000815260040180806020018281038252603281526020018061411d6032913960400191505060405180910390fd5b806040516124cf906126f5565b80828152602001915050604051809103906000f0801580156124f5573d6000803e3d6000fd5b5060036000847dffffffffffffffffffffffffffffffffffffffffffffffffffffffffffff19167dffffffffffffffffffffffffffffffffffffffffffffffffffffffffffff1916815260200190815260200160002060006101000a81548173ffffffffffffffffffffffffffffffffffffffff021916908373ffffffffffffffffffffffffffffffffffffffff160217905550600482908060018154018082558091505090600182039060005260206000209060109182820401919006600202909192909190916101000a81548161ffff02191690837e0100000000000000000000000000000000000000000000000000000000000090040217905550507fc88c3c388857d322fe9a28c50cd958c1d62ce15df2239ef222bf8927bac9919060405160405180910390a15050565b60405180606001604052806060815260200160007dffffffffffffffffffffffffffffffffffffffffffffffffffffffffffff191681526020016000151581525090565b610d308061272883390190565b828054600181600116156101000203166002900490600052602060002090601f016020900481019282601f106126b657805160ff19168380011785556126e4565b828001600101855582156126e4579182015b828111156126e35782518255916020019190600101906126c8565b5b5090506126f19190612702565b5090565b610c378061345883390190565b61272491905b80821115612720576000816000905550600101612708565b5090565b9056fe608060405234801561001057600080fd5b50604051604080610d308339810180604052604081101561003057600080fd5b810190808051906020019092919080519060200190929190505050816000806101000a81548173ffffffffffffffffffffffffffffffffffffffff021916908373ffffffffffffffffffffffffffffffffffffffff16021790555033600160006101000a81548173ffffffffffffffffffffffffffffffffffffffff021916908373ffffffffffffffffffffffffffffffffffffffff16021790555080600160146101000a81548161ffff02191690837e01000000000000000000000000000000000000000000000000000000000000900402179055505050610c18806101186000396000f3fe608060405234801561001057600080fd5b50600436106100c6576000357c010000000000000000000000000000000000000000000000000000000090048063a6d652a81161008e578063a6d652a8146102df578063a70806f71461033b578063d8b0b4991461037f578063e4aa146c146103df578063f107cfcb146103fd578063fcf5f3ae14610441576100c6565b80630aeecf2b146100cb57806314ced01614610186578063244d6daa146101a45780632710ac801461024b5780638da5cb5b14610295575b600080fd5b610184600480360360208110156100e157600080fd5b81019080803590602001906401000000008111156100fe57600080fd5b82018360208201111561011057600080fd5b8035906020019184600183028401116401000000008311171561013257600080fd5b91908080601f016020809104026020016040519081016040528093929190818152602001838380828437600081840152601f19601f8201169050808301925050505050505091929192905050506104af565b005b61018e6105b4565b6040518082815260200191505060405180910390f35b6101d0600480360360208110156101ba57600080fd5b81019080803590602001909291905050506105c1565b6040518080602001828103825283818151815260200191508051906020019080838360005b838110156102105780820151818401526020810190506101f5565b50505050905090810190601f16801561023d5780820380516001836020036101000a031916815260200191505b509250505060405180910390f35b61025361067a565b604051808273ffffffffffffffffffffffffffffffffffffffff1673ffffffffffffffffffffffffffffffffffffffff16815260200191505060405180910390f35b61029d6106a0565b604051808273ffffffffffffffffffffffffffffffffffffffff1673ffffffffffffffffffffffffffffffffffffffff16815260200191505060405180910390f35b610321600480360360208110156102f557600080fd5b81019080803573ffffffffffffffffffffffffffffffffffffffff1690602001909291905050506106c5565b604051808215151515815260200191505060405180910390f35b61037d6004803603602081101561035157600080fd5b81019080803573ffffffffffffffffffffffffffffffffffffffff169060200190929190505050610767565b005b610387610893565b60405180827dffffffffffffffffffffffffffffffffffffffffffffffffffffffffffff19167dffffffffffffffffffffffffffffffffffffffffffffffffffffffffffff1916815260200191505060405180910390f35b6103e76108c4565b6040518082815260200191505060405180910390f35b61043f6004803603602081101561041357600080fd5b81019080803573ffffffffffffffffffffffffffffffffffffffff1690602001909291905050506108d1565b005b61046d6004803603602081101561045757600080fd5b8101908080359060200190929190505050610adf565b604051808273ffffffffffffffffffffffffffffffffffffffff1673ffffffffffffffffffffffffffffffffffffffff16815260200191505060405180910390f35b600160009054906101000a900473ffffffffffffffffffffffffffffffffffffffff1673ffffffffffffffffffffffffffffffffffffffff163373ffffffffffffffffffffffffffffffffffffffff1614610572576040517f08c379a00000000000000000000000000000000000000000000000000000000081526004018080602001828103825260158152602001807f556e617574686f72697a6564206d616e616765722e000000000000000000000081525060200191505060405180910390fd5b60028190806001815401808255809150509060018203906000526020600020016000909192909190915090805190602001906105af929190610b1b565b505050565b6000600280549050905090565b600281815481106105ce57fe5b906000526020600020016000915090508054600181600116156101000203166002900480601f0160208091040260200160405190810160405280929190818152602001828054600181600116156101000203166002900480156106725780601f1061064757610100808354040283529160200191610672565b820191906000526020600020905b81548152906001019060200180831161065557829003601f168201915b505050505081565b600160009054906101000a900473ffffffffffffffffffffffffffffffffffffffff1681565b6000809054906101000a900473ffffffffffffffffffffffffffffffffffffffff1681565b600080600090505b60038054905081101561075c578273ffffffffffffffffffffffffffffffffffffffff16600382815481106106fe57fe5b9060005260206000200160009054906101000a900473ffffffffffffffffffffffffffffffffffffffff1673ffffffffffffffffffffffffffffffffffffffff16141561074f576001915050610762565b80806001019150506106cd565b50600090505b919050565b600160009054906101000a900473ffffffffffffffffffffffffffffffffffffffff1673ffffffffffffffffffffffffffffffffffffffff163373ffffffffffffffffffffffffffffffffffffffff161461082a576040517f08c379a00000000000000000000000000000000000000000000000000000000081526004018080602001828103825260158152602001807f556e617574686f72697a6564206d616e616765722e000000000000000000000081525060200191505060405180910390fd5b60038190806001815401808255809150509060018203906000526020600020016000909192909190916101000a81548173ffffffffffffffffffffffffffffffffffffffff021916908373ffffffffffffffffffffffffffffffffffffffff1602179055505050565b600160149054906101000a90047e010000000000000000000000000000000000000000000000000000000000000281565b6000600380549050905090565b600160009054906101000a900473ffffffffffffffffffffffffffffffffffffffff1673ffffffffffffffffffffffffffffffffffffffff163373ffffffffffffffffffffffffffffffffffffffff1614610994576040517f08c379a00000000000000000000000000000000000000000000000000000000081526004018080602001828103825260158152602001807f556e617574686f72697a6564206d616e616765722e000000000000000000000081525060200191505060405180910390fd5b6000600380549050905060008090505b81811015610ac4578273ffffffffffffffffffffffffffffffffffffffff16600382815481106109d057fe5b9060005260206000200160009054906101000a900473ffffffffffffffffffffffffffffffffffffffff1673ffffffffffffffffffffffffffffffffffffffff161415610ab757600182038114610ab65760036001830381548110610a3157fe5b9060005260206000200160009054906101000a900473ffffffffffffffffffffffffffffffffffffffff1660038281548110610a6957fe5b9060005260206000200160006101000a81548173ffffffffffffffffffffffffffffffffffffffff021916908373ffffffffffffffffffffffffffffffffffffffff160217905550610ac4565b5b80806001019150506109a4565b506003805480919060019003610ada9190610b9b565b505050565b60038181548110610aec57fe5b906000526020600020016000915054906101000a900473ffffffffffffffffffffffffffffffffffffffff1681565b828054600181600116156101000203166002900490600052602060002090601f016020900481019282601f10610b5c57805160ff1916838001178555610b8a565b82800160010185558215610b8a579182015b82811115610b89578251825591602001919060010190610b6e565b5b509050610b979190610bc7565b5090565b815481835581811115610bc257818360005260206000209182019101610bc19190610bc7565b5b505050565b610be991905b80821115610be5576000816000905550600101610bcd565b5090565b9056fea165627a7a72305820c1c27eb20531dadc31ab8074393d197af82b4a4732feb521e53383276b21f2de0029608060405234801561001057600080fd5b50604051602080610c378339810180604052602081101561003057600080fd5b8101908080519060200190929190505050336000806101000a81548173ffffffffffffffffffffffffffffffffffffffff021916908373ffffffffffffffffffffffffffffffffffffffff160217905550806003819055506064605082028161009557fe5b046002819055506064600a8202816100a957fe5b0460018190555050610b77806100c06000396000f3fe608060405234801561001057600080fd5b50600436106100a5576000357c0100000000000000000000000000000000000000000000000000000000900480636b1488e6116100785780636b1488e6146102c0578063eb584574146103d3578063ed11c858146104ae578063f2019442146104cc576100a5565b806309689955146100aa57806309dad953146101655780632710ac80146101835780634418c4db146101cd575b600080fd5b610163600480360360208110156100c057600080fd5b81019080803590602001906401000000008111156100dd57600080fd5b8201836020820111156100ef57600080fd5b8035906020019184600183028401116401000000008311171561011157600080fd5b91908080601f016020809104026020016040519081016040528093929190818152602001838380828437600081840152601f19601f8201169050808301925050505050505091929192905050506104ea565b005b61016d61063a565b6040518082815260200191505060405180910390f35b61018b610640565b604051808273ffffffffffffffffffffffffffffffffffffffff1673ffffffffffffffffffffffffffffffffffffffff16815260200191505060405180910390f35b6102a6600480360360408110156101e357600080fd5b810190808035906020019064010000000081111561020057600080fd5b82018360208201111561021257600080fd5b8035906020019184600183028401116401000000008311171561023457600080fd5b91908080601f016020809104026020016040519081016040528093929190818152602001838380828437600081840152601f19601f820116905080830192505050505050509192919290803573ffffffffffffffffffffffffffffffffffffffff169060200190929190505050610665565b604051808215151515815260200191505060405180910390f35b610379600480360360208110156102d657600080fd5b81019080803590602001906401000000008111156102f357600080fd5b82018360208201111561030557600080fd5b8035906020019184600183028401116401000000008311171561032757600080fd5b91908080601f016020809104026020016040519081016040528093929190818152602001838380828437600081840152601f19601f8201169050808301925050505050505091929192905050506107d7565b60405180827effffffffffffffffffffffffffffffffffffffffffffffffffffffffffffff19167effffffffffffffffffffffffffffffffffffffffffffffffffffffffffffff1916815260200191505060405180910390f35b6104ac600480360360408110156103e957600080fd5b810190808035906020019064010000000081111561040657600080fd5b82018360208201111561041857600080fd5b8035906020019184600183028401116401000000008311171561043a57600080fd5b91908080601f016020809104026020016040519081016040528093929190818152602001838380828437600081840152601f19601f820116905080830192505050505050509192919290803573ffffffffffffffffffffffffffffffffffffffff16906020019092919050505061091b565b005b6104b6610b17565b6040518082815260200191505060405180910390f35b6104d4610b1d565b6040518082815260200191505060405180910390f35b6000809054906101000a900473ffffffffffffffffffffffffffffffffffffffff1673ffffffffffffffffffffffffffffffffffffffff163373ffffffffffffffffffffffffffffffffffffffff16146105ac576040517f08c379a00000000000000000000000000000000000000000000000000000000081526004018080602001828103825260158152602001807f556e617574686f72697a6564206d616e616765722e000000000000000000000081525060200191505060405180910390fd5b60006004826040518082805190602001908083835b602083106105e457805182526020820191506020810190506020830392506105c1565b6001836020036101000a0380198251168184511680821785525050505050509050019150509081526020016040518091039020905060018160010160006101000a81548160ff0219169083151502179055505050565b60035481565b6000809054906101000a900473ffffffffffffffffffffffffffffffffffffffff1681565b600060606004846040518082805190602001908083835b6020831061069f578051825260208201915060208101905060208303925061067c565b6001836020036101000a038019825116818451168082178552505050505050905001915050908152602001604051809103902060000180548060200260200160405190810160405280929190818152602001828054801561075557602002820191906000526020600020905b8160009054906101000a900473ffffffffffffffffffffffffffffffffffffffff1673ffffffffffffffffffffffffffffffffffffffff168152602001906001019080831161070b575b5050505050905060008090505b81518110156107ca578373ffffffffffffffffffffffffffffffffffffffff1682828151811061078e57fe5b602002602001015173ffffffffffffffffffffffffffffffffffffffff1614156107bd576001925050506107d1565b8080600101915050610762565b5060009150505b92915050565b6000806004836040518082805190602001908083835b6020831061081057805182526020820191506020810190506020830392506107ed565b6001836020036101000a03801982511681845116808217855250505050505090500191505090815260200160405180910390206000018054905090506001548110156108825760007f010000000000000000000000000000000000000000000000000000000000000002915050610916565b6002548110156108b85760017f010000000000000000000000000000000000000000000000000000000000000002915050610916565b6003548110156108ee5760027f010000000000000000000000000000000000000000000000000000000000000002915050610916565b60037f0100000000000000000000000000000000000000000000000000000000000000029150505b919050565b6000809054906101000a900473ffffffffffffffffffffffffffffffffffffffff1673ffffffffffffffffffffffffffffffffffffffff163373ffffffffffffffffffffffffffffffffffffffff16146109dd576040517f08c379a00000000000000000000000000000000000000000000000000000000081526004018080602001828103825260158152602001807f556e617574686f72697a6564206d616e616765722e000000000000000000000081525060200191505060405180910390fd5b6109e78282610665565b15610a3d576040517f08c379a0000000000000000000000000000000000000000000000000000000008152600401808060200182810382526028815260200180610b246028913960400191505060405180910390fd5b60006004836040518082805190602001908083835b60208310610a755780518252602082019150602081019050602083039250610a52565b6001836020036101000a03801982511681845116808217855250505050505090500191505090815260200160405180910390209050806000018290806001815401808255809150509060018203906000526020600020016000909192909190916101000a81548173ffffffffffffffffffffffffffffffffffffffff021916908373ffffffffffffffffffffffffffffffffffffffff16021790555050505050565b60015481565b6002548156fe54686520757365722068617320616c726561647920766f74656420746865207265736f757263652ea165627a7a7230582021a986422c4418db4d4c73ed9e67cb8629b6b8101d44fe5d07f555bc8fb5445800295468652073656e6465722075736572206973206e6f7420726567697374657265642e54686520616e6f746865722075736572206973206e6f7420726567697374657265642e54686520757365722063616e206e6f7420766f746520746865207265736f757263652e54686520757365722063616e206e6f74207075626c69736820746865207265736f757263652e54686520626c61636b6c697374206f66207468697320636f756e74727920697320616c7265616479206465706c6f7965642e54686520626c61636b6c697374206973206e6f7420796574206465706c6f7965642e546865207573657220636f756e74727920626c61636b6c697374206973206e6f7420796574206465706c6f7965642e54686520757365722063616e206e6f7420666f6c6c6f772f756e666f6c6c6f772068696d73656c662ea165627a7a7230582013255a12acdfa73b830b696847f875e90c1df68e088c5b6041cbc212e74ee21b0029",
  "source": "pragma solidity ^0.5.8;\n\nimport \"./UserContract.sol\";\nimport \"./BlacklistContract.sol\";\n\ncontract DAppManager {\n\n    // Contract owner (developer)\n    address public owner;\n\n    // Resource data structure\n    struct Resource {\n\n        string ipnsHash;\n        bytes2 country;\n        bool isChosen;\n    }\n\n    // Data storage mappings\n    mapping(string => Resource) private resources;\n    mapping(address => address) public users;\n    mapping(bytes2 => address) public blacklists;\n    bytes2[] public blacklistsDeployed;\n\n    // Events\n    event onDeployedBlacklist();\n    event onPublishedResource(address publisher);\n\n    // Constructor\n    constructor() public {\n\n        owner = msg.sender;\n    }\n\n    // Functions\n    function publishNewResource(string memory domain, string memory ipnsHash, bytes2 country) public {\n\n        require(isUserRegistered(msg.sender), 'The user is not registered.');\n        require(!isDomainChosen(domain), 'The domain is already taken.');\n        require(isBlacklistDeployed(country), 'The blacklist is not yet deployed.');\n\n        // Get user\n        UserContract user = UserContract(users[msg.sender]);\n        require(country == user.country(), 'The user can not publish the resource.');\n\n        // Store the new resource\n        Resource storage resource = resources[domain];\n        resource.ipnsHash = ipnsHash;\n        resource.country = country;\n        resource.isChosen = true;\n\n        // Assign resource to its owner\n        user.assignNewResource(domain);\n\n        // Register resource in its blacklist\n        BlacklistContract blacklist = BlacklistContract(blacklists[country]);\n        blacklist.initializeNewResource(domain);\n\n        // Send event\n        emit onPublishedResource(msg.sender);\n    }\n\n    function registerUser(bytes2 userCountry) public {\n\n        require(!isUserRegistered(msg.sender), 'The user is already registered.');\n        require(isBlacklistDeployed(userCountry), 'The user country blacklist is not yet deployed.');\n\n        users[msg.sender] = address(new UserContract(msg.sender, userCountry));\n    }\n\n    function deployNewBlacklist(bytes2 country, uint votesLimit) public {\n\n        require(!isBlacklistDeployed(country), 'The blacklist of this country is already deployed.');\n\n        blacklists[country] = address(new BlacklistContract(votesLimit));\n        blacklistsDeployed.push(country);\n\n        // Send event\n        emit onDeployedBlacklist();\n    }\n\n    function voteResource(string memory domain) public {\n\n        require(isUserRegistered(msg.sender), 'The user is not registered.');\n        require(isDomainChosen(domain), 'The resource is not published.');\n\n        // Get resource country\n        Resource memory resource = resources[domain];\n\n        // Get user country\n        UserContract user = UserContract(users[msg.sender]);\n\n        require(resource.country == user.country(), 'The user can not vote the resource.');\n\n        // Search blacklist and vote resource\n        BlacklistContract blacklist = BlacklistContract(blacklists[resource.country]);\n        blacklist.addVoteToResource(domain, msg.sender);\n    }\n\n    function manageUserFollowings(address anotherUser) public {\n\n        require(msg.sender != anotherUser, 'The user can not follow/unfollow himself.');\n        require(isUserRegistered(msg.sender), 'The sender user is not registered.');\n        require(isUserRegistered(anotherUser), 'The another user is not registered.');\n\n        UserContract user = UserContract(users[msg.sender]);\n\n        if (user.isAlreadyFollowed(anotherUser)) user.unfollowUser(anotherUser);\n        else user.followUser(anotherUser);\n    }\n\n    function searchResource(string memory domain) public view returns (string memory, bytes2, byte) {\n\n        byte L3 = 0x03;\n\n        Resource memory resource = resources[domain];\n\n        if (resource.isChosen) {\n\n            BlacklistContract blacklist = BlacklistContract(blacklists[resource.country]);\n            byte resourceLevel = blacklist.getResourceLevel(domain);\n\n            if (resourceLevel != L3) return (resource.ipnsHash, resource.country, resourceLevel);\n        }\n\n        return ('', 0x0000, 0x00);\n    }\n\n    function isDomainChosen(string memory domain) public view returns (bool) {\n\n        Resource memory resource = resources[domain];\n        return resource.isChosen;\n    }\n\n    function isUserRegistered(address user) public view returns (bool) {\n\n        address userContract = users[user];\n\n        if (userContract != address(0)) return true;\n        else return false;\n    }\n\n    function isBlacklistDeployed(bytes2 country) public view returns (bool) {\n\n        address blacklistContract = blacklists[country];\n\n        if (blacklistContract != address(0)) return true;\n        else return false;\n    }\n\n    function getBlacklistsCount() public view returns (uint) {\n\n        return blacklistsDeployed.length;\n    }\n}\n",
  "sourcePath": "/Users/swarley/Documents/Sentinel/dapp/contracts/DAppManager.sol",
  "compiler": {
    "name": "solc",
    "version": "0.5.8+commit.23d335f2.Emscripten.clang"
  },
  "schemaVersion": "3.0.6",
  "updatedAt": "2019-05-30T08:03:45.881Z",
  "devdoc": {
    "methods": {}
  },
  "userdoc": {
    "methods": {}
  }
}